:100000000C9434000C9451000C9451000C94510049
:100010000C9453000C9451000C9451000C9451001A
:100020000C9451000C9451000C9451000C9451000C
:100030000C9451000C9451000C9451000C945100FC
:100040000C9451000C9451000C9451000C945100EC
:100050000C9451000C9451000C9451000C945100DC
:100060000C9451000C94510011241FBECFEFD8E026
:10007000DEBFCDBF11E0A0E0B1E0E8E0F4E002C0F7
:1000800005900D92A430B107D9F721E0A4E0B1E0CA
:1000900001C01D92A930B207E1F70E94AA010C9499
:1000A00002020C9400001F920F920FB60F921124BF
:1000B0008F939F9386B180718093080186B180727F
:1000C0008093050180910601811110C08091080183
:1000D000882321F081E0809307017AC08091050197
:1000E000882339F182E08093070111C080910601D5
:1000F000813009F063C080910501882311F083E00D
:10010000EACF80910801811114C0109207018091FB
:1001100002019091030101979093030180930201E2
:1001200080910001909101010197909301018093CA
:10013000000180910201909103018F3F910539F0F8
:1001400034F08FEF90E0909303018093020180914F
:1001500002019091030197FF04C0109203011092D5
:10016000020180910001909101018D38910534F0D8
:100170008CE890E090930101809300018091000150
:10018000909101018F9734F48FE290E090930101F8
:10019000809300019091070180910601981739F032
:1001A00081E08093040180910701809306019F9173
:1001B0008F910F900FBE0F901F90189580910601A0
:1001C0008230E1F480910501811111C01092070184
:1001D0008091020190910301019690930301809315
:1001E0000201809100019091010101969ECF8091C2
:1001F0000801882309F49DCF83E075CF8091050124
:10020000811102C081E06FCF80910801811191CFEF
:1002100082E061CFE0EBF0E08081836080838081C9
:100220008068808380E88093B300E1EBF0E0808118
:10023000876080830895E1E8F0E0808188618083B1
:10024000A0E8B0E08C9183608C938C9180628C9359
:1002500082EE94E090938900809388008EE590E090
:1002600090938B0080938A008081846080830895BE
:100270009BB19F709BB99BB1807F892B8BB9299AC9
:1002800029980895CF93C82F28980E9438018C2F61
:100290008295807F0E9438018FE39FE10197F1F7FB
:1002A00000C00000CF910895811104C080E8860F3E
:1002B0000C94420180ECFBCF8AB1806F8AB984B183
:1002C000836084B98FE59AEE0197F1F700C00000D2
:1002D00080E30E9438018FE19EE40197F1F700C0AE
:1002E000000080E30E9438018FED91E00197F1F763
:1002F00000C0000080E30E94380180E20E943801C3
:100300008FE39FE10197F1F700C0000088E20E94AF
:1003100042018FE00C944201CF93C82F289A0E948B
:1003200038018C2F8295807F0E9438018FE39FE1F6
:100330000197F1F700C00000CF910895CF93DF93AC
:10034000EC018991811103C0DF91CF9108950E9442
:100350008C01F7CF80916800826080936800809163
:100360006C00806380936C00789484B18C6084B955
:1003700088B1806388B90E940A010E941B0186B17E
:1003800080718093080186B180728093050180910D
:10039000050181111FC08091080181111BC01092BD
:1003A0000601809106018093070180910401882352
:1003B000E1F3109204018091020190910301809376
:1003C000B300809100019091010190938B00809384
:1003D0008A00EBCF80910501811108C0809108014E
:1003E000882321F081E080930601DBCF8091050115
:1003F000882331F080910801811102C082E0F3CF9F
:0804000083E0F1CFF894FFCF77
:040408005E00800012
:00000001FF
