:100000000C9434000C9451000C9451000C94510049
:100010000C9451000C9451000C9451000C9451001C
:100020000C9451000C9451000C9451000C946500F8
:100030000C9451000C9451000C9451000C945100FC
:100040000C9451000C9451000C9451000C945100EC
:100050000C9451000C9451000C9451000C945100DC
:100060000C9451000C94510011241FBECFEFD8E026
:10007000DEBFCDBF11E0A0E0B1E0EEECF9E002C0E0
:1000800005900D92A032B107D9F721E0A0E2B1E0CE
:1000900001C01D92A432B207E1F70E9438010C940E
:1000A000E5040C940000E1E8F0E080818860808342
:1000B000EFE6F0E080818260808388EA91E69093A9
:1000C000890080938800789408951F920F920FB64C
:1000D0000F9211248F93809120018F5F80932001D4
:1000E000809120018A3090F01092200180912101AE
:1000F0008F5F80932101809121018A3038F0109226
:100100002101809122018F5F809322018091220141
:10011000863031F4109222011092210110922001B8
:100120008F910F900FBE0F901F9018959BB19F70ED
:100130009BB99BB1807F892B8BB9299A2998089507
:10014000CF93C82F28980E9496008C2F8295807F8D
:100150000E9496008FE39FE10197F1F700C0000035
:10016000CF910895811104C080E8860F0C94A000FF
:1001700080ECFBCF8AB1806F8AB984B1836084B987
:100180008FE59AEE0197F1F700C0000080E30E942E
:1001900096008FE19EE40197F1F700C0000080E334
:1001A0000E9496008FED91E00197F1F700C00000EA
:1001B00080E30E94960080E20E9496008FE39FE118
:1001C0000197F1F700C0000088E20E94A0008FE0D4
:1001D0000C94A000CF93C82F289A0E9496008C2FD1
:1001E0008295807F0E9496008FE39FE10197F1F74F
:1001F00000C00000CF910895CF93DF93EC01899167
:10020000811103C0DF91CF9108950E94EA00F7CFDA
:10021000ECE7F0E080818B7F80838081877F808323
:1002200080818064808380818062808380818F77F9
:100230008083EAE7F0E08081876880830895909169
:100240007C00907F90937C0090917C008F70892B34
:1002500080937C0080917A00806480937A00809102
:100260007A0086FDFCCF8091790080917900089515
:10027000CF93DF93CDB7DEB72A970FB6F894DEBFE2
:100280000FBECDBF0E94BA000E9408010E94530019
:1002900081E00E94A00061E080E00E94B20080E066
:1002A00091E00E94FC0061E081E00E94B2008DE0DC
:1002B00091E00E94FC002FEF89E698E121508040F8
:1002C0009040E1F700C0000081E00E94A00060E0E3
:1002D00081E00E94B20083E191E00E94FC0010E006
:1002E000BB24B39488E1C82E81E0D82E0AE0CE0169
:1002F00001967C0180E00E941F01113009F04AC084
:10030000109323019EEC980F9B30B0F580918100F3
:10031000887F809381009FEF23EC89E091502040FB
:100320008040E1F700C0000010E08091230181309F
:1003300009F71092230120912001909121018091D1
:1003400022011F922F931F929F931F928F93DF92F0
:10035000CF921F920F93FF92EF920E94000260E0F3
:1003600081E00E94B200C7010E94FC000FB6F89421
:10037000DEBF0FBECDBFBECF84568B30B0F69FEF31
:1003800023EC89E0915020408040E1F700C000005C
:1003900012E0CBCF123091F49EEC980F9B3018F006
:1003A00084568B3010F69FEF23EC89E0915020406B
:1003B0008040E1F700C0000011E0B7CF1111B5CFC8
:1003C0009EEC980F9B3030F4809181008360809385
:1003D0008100E9CF84568B3008F0A7CF109220011E
:1003E0001092210110922201B09223019FEF23EC81
:1003F00089E0915020408040E1F700C0000095CF97
:10040000AEE0B0E0E6E0F2E00C94BC040D891E8999
:100410008F89988D26E02C831A83098397FF02C069
:1004200080E090E801979E838D83AE01455E5F4F2B
:10043000698D7A8DCE0101960E9430024D815E81D8
:1004400057FD0AC02F813885421753070CF49A01D3
:10045000020F131FF80110822E96E4E00C94D804CA
:10046000ABE0B0E0E6E3F2E00C94AE047C013B01CB
:100470008A01FC0117821682838181FFC8C1CE01E7
:1004800001965C01F7019381F30193FD859193FF40
:1004900081913F01882309F453C1853239F493FDDA
:1004A000859193FF81913F01853229F4B70190E056
:1004B0000E942004E7CF912C212C312CFFE1F31571
:1004C00038F08B3211F190F4803209F1833229F146
:1004D00037FC3CC020ED280F2A3050F536FE20C0F6
:1004E0008AE0989E200D1124922E06C08D3291F044
:1004F000803371F7689430F8F30193FD859193FF91
:1005000081913F018111DACF21C0689431F868945C
:1005100032F8F2CF689433F8EFCF689434F8ECCF28
:10052000EAE02E9E200D1124222E689435F8E4CFA7
:100530008E3229F436FC04C1689436F8DDCF8C364F
:1005400019F4689437F8D8CF8836B1F2982F9F7D88
:1005500095549330E0F08336A1F18337C1F18335B0
:1005600009F063C02801F2E04F0E511CF801C08071
:10057000D180692D70E036FC02C06FEF7FEFC601BD
:100580000E940A044C01689437F882010AC00C5F8B
:100590001F4FFFE3F98388248394912C6501E8942D
:1005A00037F833FE2DC0522C8114910471F555207B
:1005B00009F468CFB70180E290E00E9420045A94C9
:1005C000F6CFF801808189830E5F1F4FE4CF2801A9
:1005D000F2E04F0E511CF801C080D180692D70E00F
:1005E00036FC02C06FEF7FEFC6010E9415044C017C
:1005F0008201D5CFB70180E290E00E9420042A94C6
:100600002814190409F0B0F7CECFF60137FC859114
:1006100037FE81916F01B70190E00E9420045110D4
:100620005A94F1E08F1A9108BFCF843619F08936B9
:1006300009F077C0F80137FE6BC06081718182815B
:1006400093810C5F1F4FF32DFF763F2E97FF09C05C
:1006500090958095709561957F4F8F4F9F4F6894CF
:1006600037F82AE030E0A5010E945004C82ECA18CD
:100670008C2C432C36FE0CC0E89440F8C91440F48E
:1006800034FE05C032FC03C0F32DFE7E4F2E892CB4
:1006900044FE95C0FE01EC0DF11D8081803309F010
:1006A00087C0242D297E422E842D8870582E43FC2D
:1006B00095C040FE8FC09C2C821418F42C0C922CF8
:1006C000981844FE91C0B70180E390E00E94200496
:1006D00042FE09C088E790E041FE02C088E590E054
:1006E000B7010E942004C91408F48AC0CA94D12C0E
:1006F0009FEFC91AD90ACA0CDB1CF60182916F015F
:10070000B70190E00E942004AC14BD04B1F74FCFB4
:1007100060817181072E000C880B990B0E5F1F4FB3
:1007200092CFD32CE894D4F82AE030E0853739F121
:10073000232D297FD22E8F3601F148F48835A9F078
:10074000F701868197812B96E2E10C94CA048037E9
:1007500049F08837A9F7D4FE02C06894D2F820E1A6
:1007600030E00DC06894D4F8F6CF34FE03C0822F79
:100770008660D82E20E132E002C028E030E0F801A7
:10078000D7FE0FC060817181828193810C5F1F4F02
:10079000A5010E945004C82ECA183D2CE89437F8D1
:1007A00067CF6081718190E080E00E5F1F4FF0CFD6
:1007B00042FC02C0839478CF8394839475CF842DB8
:1007C000867809F471CFF6CFB70180E290E00E94FD
:1007D000200483948214C0F3512C73CF522C5818E8
:1007E000821408F46ECFF8CF842D867809F47BCF7D
:1007F0008BE241FE80E247FC8DE2B70190E071CFD1
:10080000B70180E390E00E9420049A946CCF8FEFB0
:100810009FEF99CFFC010590615070400110D8F70F
:10082000809590958E0F9F1F0895FC016150704038
:1008300001900110D8F7809590958E0F9F1F089515
:100840000F931F93CF93DF93182F092FEB018B8109
:1008500081FD09C01FEF0FEF812F902FDF91CF9106
:100860001F910F91089582FF14C02E813F818C81CA
:100870009D81281739073CF4E881F981CF01019661
:100880009983888310838E819F8101969F838E83B5
:10089000E3CFE885F985812F0995892BA1F3DACF7C
:1008A000FA01AA27283051F1203181F1E8946F93A1
:1008B0006E7F6E5F7F4F8F4F9F4FAF4FB1E03ED047
:1008C000B4E03CD0670F781F891F9A1FA11D680FE5
:1008D000791F8A1F911DA11D6A0F711D811D911D18
:1008E000A11D20D009F468943F912AE0269F11248D
:1008F0003019305D3193DEF6CF010895462F4770F1
:10090000405D4193B3E00FD0C9F7F6CF462F4F704B
:10091000405D4A3318F0495D31FD4052419302D0A9
:10092000A9F7EACFB4E0A69597958795779567954F
:10093000BA95C9F700976105710508959B01AC014F
:100940000A2E06945795479537952795BA95C9F776
:10095000620F731F841F951FA01D08952F923F9251
:100960004F925F926F927F928F929F92AF92BF92BF
:10097000CF92DF92EF92FF920F931F93CF93DF936B
:10098000CDB7DEB7CA1BDB0B0FB6F894DEBF0FBEC8
:10099000CDBF09942A88398848885F846E847D8415
:1009A0008C849B84AA84B984C884DF80EE80FD8017
:1009B0000C811B81AA81B981CE0FD11D0FB6F8948D
:0E09C000DEBF0FBECDBFED010895F894FFCF4E
:1009CE004D616E74656A204C616D6261004C6162AE
:1009DE00203800302E303000256425642E2564002A
:00000001FF
