:100000000C9434000C943E000C943E000C943E0082
:100010000C943E000C943E000C943E000C943E0068
:100020000C943E000C943E000C943E000C943E0058
:100030000C943E000C943E000C943E000C943E0048
:100040000C943E000C943E000C943E000C943E0038
:100050000C943E000C943E000C943E000C943E0028
:100060000C943E000C943E0011241FBECFEFD8E04C
:10007000DEBFCDBF0E94B2000C94F4000C940000CF
:100080009BB19F709BB99BB1807F892B8BB9299ABB
:1000900029980895CF93C82F28980E9440008C2F4C
:1000A0008295807F0E9440008FE39FE10197F1F7E6
:1000B00000C00000CF910895811104C080E8860F30
:1000C0000C944A0080ECFBCF8AB1806F8AB984B16E
:1000D000836084B98FE59AEE0197F1F700C00000C4
:1000E00080E30E9440008FE19EE40197F1F700C099
:1000F000000080E30E9440008FED91E00197F1F74E
:1001000000C0000080E30E94400080E20E944000A6
:100110008FE39FE10197F1F700C0000088E20E94A1
:100120004A008FE00C944A00CF93C82F289A0E946F
:1001300040008C2F8295807F0E9440008FE39FE1DA
:100140000197F1F700C00000CF910895CF93DF939E
:10015000EC018991811103C0DF91CF9108950E9434
:100160009400F7CF429A449A3A983C980E946400CF
:1001700000E090E080E010E0D0E0C0E0329B10E0D2
:10018000349B02C01130F1F411E08A30910579F40A
:1001900081E00E944A0080E3800F0E949400219732
:1001A00010F4C9E0D0E00C2F11E090E080E001965F
:1001B0003FEF40E722E0315040402040E1F700C0EF
:1001C0000000DCCF8A30910591F781E00E944A005F
:1001D00080E3800F0E9494002196CA30D10511F46B
:0C01E000D0E0C0E00C2FE1CFF894FFCF7E
:00000001FF
