:100000000C943A000C9457000C9457000C94570031
:100010000C94FE010C94FD000C9457000C945700B6
:100020000C9457000C9457000C9457000C94B30197
:100030000C9457000C9457000C94D7010C94570063
:100040000C9457000C9457000C9468000C945700C3
:100050000C9457000C9457000C9457000C945700C4
:100060000C9457000C9457006364696E6F7073753D
:1000700078585B0011241FBECFEFD8E0DEBFCDBFA4
:1000800011E0A0E0B1E0E8EAF6E102C005900D92CF
:10009000A236B107D9F721E0A2E6B1E001C01D9276
:1000A000AB38B207E1F70E94BD020C94520B0C94DE
:1000B0000000EFE6F0E0808182608083E1E8F0E01C
:1000C00080818860808310928B0010928A0008954E
:1000D0001F920F920FB60F9211242F933F938F937D
:1000E0009F938091C6008B35B9F481E090E09093A6
:1000F00075018093740110926C0110926B01109243
:100100006E0110926D019F918F913F912F910F90F1
:100110000FBE0F901F9018952091740130917501BA
:100120002130310581F790ED980F9A3038F4209105
:100130006D0130916E012530310510F08D3559F487
:10014000109275011092740181E090E090936C011F
:1001500080936B01D8CF1092750110927401D3CFA8
:10016000E0EBF0E0808183608083A1EBB0E08C91D4
:1001700087608C9380818068808383E28093B30062
:100180000895EEE6F0E080818260808384B582602D
:1001900084BD80E587BD089589B1982F98709093AC
:1001A00089018470809373011092780180917301AA
:1001B00081110BC080918901811107C010927F01CC
:1001C00080917F0180938201089580917301811154
:1001D00008C080918901882321F081E080937F010C
:1001E000EFCF80917301882331F0809189018111D3
:1001F00002C082E0F3CF83E0F1CF1F920F920FB6DF
:100200000F9211248F939F9389B1982F947090939C
:10021000730188708093890180917F01833009F098
:1002200045C080917301811139C081E080938201C2
:100230008091710190917201019790937201809366
:10024000710180917101909172018436910530F0B5
:1002500083E690E0909372018093710190917F0109
:1002600080918201981739F081E080936A01809132
:10027000820180937F018091710190917201892B9D
:1002800031F481E090E090937201809371019F912D
:100290008F910F900FBE0F901F901895809189013C
:1002A0008111CFCF82E08093820133C080917F01A2
:1002B000811111C080918901811102C082E0B6CF05
:1002C00080918901882309F4BCCF80917301811149
:1002D000B8CF81E0E8CF80917F01823001F5809135
:1002E0007301811110C080918901882361F081E040
:1002F0008093820180917101909172010197909396
:100300007201809371018091890181119ACF1092BD
:100310008201809171019091720101968ECF80913E
:100320007F01813009F08DCF8091890181110FC04B
:100330008091730181110BC0109282018091710133
:100340009091720101979093720180937101809155
:100350008901882309F475CF80917301882309F4FA
:1003600070CF83E0A0CF1F920F920FB60F9211248F
:100370008F93EF93FF93E1E8F0E08081897F8083A2
:1003800081E080938A01FF91EF918F910F900FBED2
:100390000F901F901895FC019191911101C0089543
:1003A0008091C00085FFFCCF9093C600F5CF1F92CF
:1003B0000F920FB60F9211242F938F939F9388B1B2
:1003C00090E2892788B98091790190917A0101960C
:1003D00090937A01809379018091790190917A01CB
:1003E0008837914018F085B58D7F85BD9F918F919D
:1003F0002F910F900FBE0F901F9018951F920F9284
:100400000FB60F9211248F939F9386B18091710143
:100410009091720180936901329912C01092720119
:1004200010927101809181008B7F80938100809177
:1004300081008E7F80938100439881E080936801E2
:1004400031991BC081E090E090937201809371011B
:10045000439A809181008460809381008091810023
:10046000816080938100109285001092840084E264
:1004700094EF90938900809388009F918F910F90C3
:100480000FBE0F901F9018959091C00095FFFCCF64
:100490008093C60008959BB19F709BB99BB1807FEC
:1004A000892B8BB9299A29980895CF93C82F28981A
:1004B0000E944B028C2F8295807F0E944B028FE31B
:1004C0009FE10197F1F700C00000CF9108958111DD
:1004D00004C080E8860F0C94550280ECFBCF8AB1F3
:1004E000806F8AB984B1836084B98FE59AEE0197F1
:1004F000F1F700C0000080E30E944B028FE19EE410
:100500000197F1F700C0000080E30E944B028FEDDD
:1005100091E00197F1F700C0000080E30E944B02D8
:1005200080E20E944B028FE39FE10197F1F700C048
:10053000000088E20E9455028FE00C945502CF9390
:10054000C82F289A0E944B028C2F8295807F0E9490
:100550004B028FE39FE10197F1F700C00000CF91BC
:100560000895CF93DF93EC018991811103C0DF914E
:10057000CF9108950E949F02F7CFCF93DF93CDB71D
:10058000DEB7A5970FB6F894DEBF0FBECDBF809142
:10059000680084608093680080916C008062809322
:1005A0006C0080916C00826080936C008091680088
:1005B00082608093680078948091C1008068809305
:1005C000C10080916D00886080936D0080916C0007
:1005D000846080936C0080916D00846080936D00D6
:1005E0003C9A44980E946F020E9459000E94CC00DD
:1005F0000E94C1000E94B00087B1886287B98BB1A8
:100600008C608BB9349884B1806384B9239A8091CB
:10061000C10088618093C10086E08093C20087E6B4
:1006200090E09093C5008093C40081E00E94550241
:1006300062E080E00E94670282E091E00E94B102E5
:1006400062E081E00E9467028FE091E00E94B102C7
:100650002FEF33ED80E3215030408040E1F700C0C0
:10066000000081E00E9455022D988BE08093B3003A
:100670009FEFE9E6F8E19150E040F040E1F700C07B
:10068000000083E28093B3002FEF39E688E1215028
:1006900030408040E1F700C000003DE7432E512C80
:1006A000612C712C48E8A42E43E1B42E7E019CE11C
:1006B000E90EF11C8E010F5F1F4F1E01E5E12E0EAA
:1006C000311C9E012E5D3F4F3DA32CA380916801FC
:1006D0008111A2C08091760190917701809176017D
:1006E00090917701892B21F085B1807285B92C9A80
:1006F00080918A018823D9F0809181008B7F80933B
:100700008100809181008E7F80938100109283010F
:1007100010928401109285011092860160E080E0C1
:100720000E94670285E491E00E94B10243988091A3
:100730006A01882379F110926A01609171017091C8
:10074000720184E690E00E94090B66E081E00E945D
:10075000670284E591E00E94B1028091710190915D
:1007600072019F938F9386E591E09F938F931F92E1
:100770008AE08F931F930F930E94470560E081E00A
:100780000E946702C8010E94B1020FB6F894DEBF52
:100790000FBECDBF80916B0190916C01892B01F14F
:1007A00010926C0110926B013DA13F938CA18F932D
:1007B000EFE5F1E0FF93EF938BE791E09F938F9349
:1007C0000E9477058AA19BA12AE0289F6001299FAA
:1007D000D00C11240F900F900F900F900F900F904E
:1007E0001C141D040CF0F5C02D9A85B1807185B9DB
:1007F0008091870190918801E0918001F0918101C1
:100800002AE030E0B9010E9411058E179F0709F018
:10081000E6C02D982C985ACF80916801882309F45E
:1008200067CF8091840090918500B0E0A0E0809334
:10083000620190936301A0936401B093650160919C
:10084000620170916301809164019091650123E0E0
:10085000660F771F881F991F2A95D1F7A301920170
:100860000E942505209383013093840140938501E4
:100870005093860120917101309172016091710154
:1008800070917201C5010E941105909370018093CF
:100890006F0180916F019091700164E670E00E9499
:1008A00011057093700160936F01809166019091C2
:1008B00067019F938F93C501B9010E9411057F9332
:1008C0006F9383E291E09F938F931F9286E08F93C3
:1008D000FF92EF920E9447058BE590E00E94440250
:1008E00047010FB6F894DEBF0FBECDBFF401819172
:1008F0004F01811168C08DE590E00E94440263E0E1
:1009000080E00E9467028091830190918401A09110
:100910008501B09186011F921F9221E02F9320EE56
:100920002F93BF93AF939F938F9328E231E03F9330
:100930002F931F9284E18F931F930F930E9447057B
:10094000C8010E94B10210926801809171019091DA
:1009500072010FB6F894DEBF0FBECDBF803E91404E
:1009600068F48091710190917201892B39F0109295
:100970007A011092790185B5846085BD21EF3FEF42
:100980003093010120930001209100013091010179
:1009900083E2821B8093B3001F921F9281E08F93AA
:1009A00080EE8F938BE391E09F938F931F9287E06C
:1009B0008F933F922F920E9447050FB6F894DEBFA7
:1009C0000FBECDBF95CE082E000C990B0E9444029D
:1009D0008DCFD7FE0DCF2C9A85B1807208CF809134
:1009E000870190918801E0918001F0918101B90126
:1009F0000E9411058E179F0710F42D9A0BCF80913E
:100A0000870190918801E0918001F0918101B90105
:100A10000E941105E817F90708F058CE2C9A2D9876
:100A200055CEAA1BBB1B51E107C0AA1FBB1FA617AF
:100A3000B70710F0A61BB70B881F991F5A95A9F787
:100A400080959095BC01CD010895A1E21A2EAA1BB4
:100A5000BB1BFD010DC0AA1FBB1FEE1FFF1FA2176E
:100A6000B307E407F50720F0A21BB30BE40BF50B6B
:100A7000661F771F881F991F1A9469F760957095F4
:100A8000809590959B01AC01BD01CF010895AEE02A
:100A9000B0E0EDE4F5E00C94290B0D891E898F89F7
:100AA000988D26E02C831A83098397FF02C080E08B
:100AB00090E801979E838D83AE01455E5F4F698DFF
:100AC0007A8DCE0101960E9490054D815E8157FD81
:100AD0000AC02F813885421753070CF49A01020F80
:100AE000131FF80110822E96E4E00C94450BAEE043
:100AF000B0E0EDE7F5E00C942B0B85E08C838B895F
:100B00009C899A838983AE01495E5F4F6D897E8996
:100B1000CE0101960E94F5082E96E2E00C94470B58
:100B2000ABE0B0E0E6E9F5E00C941B0B7C013B0187
:100B30008A01FC0117821682838181FFC8C1CE0120
:100B400001965C01F7019381F30193FD859193FF79
:100B500081913F01882309F453C1853239F493FD13
:100B6000859193FF81913F01853229F4B70190E08F
:100B70000E94600AE7CF912C212C312CFFE1F31564
:100B800038F08B3211F190F4803209F1833229F17F
:100B900037FC3CC020ED280F2A3050F536FE20C02F
:100BA0008AE0989E200D1124922E06C08D3291F07D
:100BB000803371F7689430F8F30193FD859193FFCA
:100BC00081913F018111DACF21C0689431F8689496
:100BD00032F8F2CF689433F8EFCF689434F8ECCF62
:100BE000EAE02E9E200D1124222E689435F8E4CFE1
:100BF0008E3229F436FC04C1689436F8DDCF8C3689
:100C000019F4689437F8D8CF8836B1F2982F9F7DC1
:100C100095549330E0F08336A1F18337C1F18335E9
:100C200009F063C02801F2E04F0E511CF801C080AA
:100C3000D180692D70E036FC02C06FEF7FEFC601F6
:100C40000E940E0A4C01689437F882010AC00C5FBA
:100C50001F4FFFE3F98388248394912C6501E89466
:100C600037F833FE2DC0522C8114910471F55520B4
:100C700009F468CFB70180E290E00E94600A5A94BC
:100C8000F6CFF801808189830E5F1F4FE4CF2801E2
:100C9000F2E04F0E511CF801C080D180692D70E048
:100CA00036FC02C06FEF7FEFC6010E94190A4C01AB
:100CB0008201D5CFB70180E290E00E94600A2A94B9
:100CC0002814190409F0B0F7CECFF60137FC85914E
:100CD00037FE81916F01B70190E00E94600A5110C8
:100CE0005A94F1E08F1A9108BFCF843619F08936F3
:100CF00009F077C0F80137FE6BC060817181828195
:100D000093810C5F1F4FF32DFF763F2E97FF09C095
:100D100090958095709561957F4F8F4F9F4F689408
:100D200037F82AE030E0A5010E94A80AC82ECA18A8
:100D30008C2C432C36FE0CC0E89440F8C91440F4C7
:100D400034FE05C032FC03C0F32DFE7E4F2E892CED
:100D500044FE95C0FE01EC0DF11D8081803309F049
:100D600087C0242D297E422E842D8870582E43FC66
:100D700095C040FE8FC09C2C821418F42C0C922C31
:100D8000981844FE91C0B70180E390E00E94600A89
:100D900042FE09C088E790E041FE02C088E590E08D
:100DA000B7010E94600AC91408F48AC0CA94D12C01
:100DB0009FEFC91AD90ACA0CDB1CF60182916F0198
:100DC000B70190E00E94600AAC14BD04B1F74FCFA8
:100DD00060817181072E000C880B990B0E5F1F4FED
:100DE00092CFD32CE894D4F82AE030E0853739F15B
:100DF000232D297FD22E8F3601F148F48835A9F0B2
:100E0000F701868197812B96E2E10C94370B8037AE
:100E100049F08837A9F7D4FE02C06894D2F820E1DF
:100E200030E00DC06894D4F8F6CF34FE03C0822FB2
:100E30008660D82E20E132E002C028E030E0F801E0
:100E4000D7FE0FC060817181828193810C5F1F4F3B
:100E5000A5010E94A80AC82ECA183D2CE89437F8AC
:100E600067CF6081718190E080E00E5F1F4FF0CF0F
:100E700042FC02C0839478CF8394839475CF842DF1
:100E8000867809F471CFF6CFB70180E290E00E9436
:100E9000600A83948214C0F3512C73CF522C5818DB
:100EA000821408F46ECFF8CF842D867809F47BCFB6
:100EB0008BE241FE80E247FC8DE2B70190E071CF0A
:100EC000B70180E390E00E94600A9A946CCF8FEFA4
:100ED0009FEF99CF20FD09C0FC0123FD05C022FF33
:100EE00002C07383628351834083089544FD17C019
:100EF00046FD1DC0DB01FC01AA0FBB1FEE1FFF1F3B
:100F00001094D1F76A0F7B1F8E1F9F1F660F771FEC
:100F1000881F991F620F711D811D911D089533E077
:100F2000660F771F881F991F3150D1F7F3CF34E038
:100F3000F7CF0F931F93CF93DF938C01C8010E94CB
:100F4000240AEC0197FD08C00E94FA09892BB1F729
:100F5000B801CE010E94900ACE01DF91CF911F917E
:100F60000F9108958F929F92AF92BF92EF92FF924E
:100F70000F931F93CF93DF938C01D62F7A01B22E5C
:100F80000E94240A9C0133272B32310529F02D328F
:100F90003105A9F46894B7F8D15061F480E0DF918D
:100FA000CF911F910F91FF90EF90BF90AF909F90C6
:100FB0008F900895C8010E94240A97FDEFCFCB2D92
:100FC000CD7F2B2D2073F9F48033E9F4AA24AA9461
:100FD000AD0E89F0C8010E94240A97FD0CC0282F8D
:100FE0002F7D283561F4C264D25029F0C8010E94D7
:100FF000240A97FF08C0812C912C54011BC0B6FE17
:101000002BC0C260DA2D812C912C540120ED280FC9
:10101000283028F1C4FD09C02A3008F1C6FF05C0F8
:101020002F7D3FEE320F3630C8F0B8010E94900A93
:10103000C1FFB4CFC7FF08C0B094A094909480942F
:10104000811C911CA11CB11C2C2FB501A401C7014E
:101050000E946A0781E0A3CFC261D4CF27504C2FF2
:10106000C501B4010E9476074B015C01C260D150FA
:1010700009F3C8010E94240A97FFC8CFD9CFA0E284
:10108000B0E0E5E4F8E00C94200B5C01962E7A01C8
:10109000CE0101966C0180E2F60111928A95E9F782
:1010A000F501B381890130E020E0712C812CA0E0B2
:1010B00041E050E0F801B3FD8591B3FF8191982F95
:1010C0008F01811107C010E000E0C801A096EDE09B
:1010D0000C943C0B8E3519F42115310541F1A21702
:1010E00013064CF48D3549F18D3229F4811006C078
:1010F000882483941DC0882009F464C0E92FE695F4
:10110000E695E695EC0DFD2DF11D892F8770BA014E
:1011100001C0660F8A95EAF78081682B6083791693
:1011200051F0971510F49F5FE9CF9150E7CFA1E000
:101130002F5F3F4FBFCF812CFBCF882019F08E81CE
:1011400080628E83AA2359F0F6019E012F5D3F4FE6
:101150008081809580833196E217F307C9F7882450
:101160008394C5010E94240A97FD16C0E82FE695D6
:10117000E695E695EC0DFD2DF11D208130E0AC01EA
:101180004770552702C0359527954A95E2F720FD0F
:1011900006C0B5010E94900A882069F094CFE1143E
:1011A000F10429F0F7018083C70101967C019A942C
:1011B000812C9110D6CFE114F10409F486CFF70108
:1011C000108283CFE82FE695E695E695EC0DFD2D90
:1011D000F11D982F9770BA0101C0660F9A95EAF732
:1011E0009081692B6083782EA3CFB0E0A0E0EBEF75
:1011F000F8E00C941E0B6C01EB015A01FC01178204
:101200001682512CF601E380FE01E3FC8591E3FE9A
:101210008191182FEF018823E9F090E00E94FA09EC
:10122000892B21F0C6010E949907ECCF153241F4B9
:10123000FE01E3FC1591E3FE1191EF01153269F413
:10124000C6010E94240A97FD8EC01817D9F2B60174
:101250000E94900A852D90E08AC000E01A3231F495
:10126000E3FC1591E3FE1191EF0101E0F12C20ED7B
:10127000210F2A3048F101FF37C0FF2059F31836FB
:10128000B1F11C3609F43DC0112321F3612F70E048
:1012900088E690E00E94030A892BE1F2912C812CD0
:1012A00000FD06C0F50180809180C50102965C01B9
:1012B0001E3679F5F6014681578170E060E0202FF7
:1012C000C4010E946A079ECF02606F2D70E090E01B
:1012D00080E040E20E947607F62EFE01E3FC1591C5
:1012E000E3FE1191EF01C3CFFF24FA94C8CFFE01B2
:1012F000E3FC1591E3FE1191EF01183609F0C4CF1C
:1013000008600460FE01E3FC1591E3FE1191EF011A
:10131000BBCF1336C1F401FD02C0FF24F394C60114
:101320000E94240A97FD1FC08114910429F0F40142
:101330008083C40101964C01FA94F110F0CF00FDB6
:1013400061CF53945FCF1B35B9F49E01A4016F2D7B
:10135000C6010E943F08EC01892B89F7F6018381C1
:10136000807309F477CF8FEF9FEF511073CFCDB714
:10137000DEB7EFE00C943A0BC6010E94990797FD87
:10138000F2CF1F36A9F130F4143641F0193639F096
:10139000006405C01337B9F01537D1F70062202F6C
:1013A000A4016F2DC6010E94B2078111C8CFD6CF0C
:1013B0008114910429F0F4016082C40101964C016A
:1013C000FA94FF2071F0C6010E94240A3C0197FDA7
:1013D00008C00E94FA09892B59F3B601C3010E9483
:1013E000900A8114910409F4AACFF4011082A7CFC6
:1013F0000061D5CF91110C94060B803219F0895001
:101400008550C8F70895FC010590061621F00020CC
:10141000D9F7C00108953197CF010895FC010590D7
:10142000615070400110D8F7809590958E0F9F1FE6
:101430000895FC016150704001900110D8F780952B
:1014400090958E0F9F1F0895CF93DF93EC012B8112
:1014500020FF1AC026FF0CC02F7B2B838E819F811B
:1014600001969F838E838A8190E0DF91CF910895CA
:1014700022FF18C0E881F9818081082E000C990BA9
:10148000009729F420622B838FEF9FEFEECF3196E8
:10149000F983E8832E813F812F5F3F4F3F832E8367
:1014A0009927E3CFEA85FB85099597FFF3CF2B8139
:1014B000019621F080E2822B8B83E6CF80E1FBCF87
:1014C0000F931F93CF93DF93182F092FEB018B817D
:1014D00081FD09C01FEF0FEF812F902FDF91CF917A
:1014E0001F910F91089582FF14C02E813F818C813E
:1014F0009D81281739073CF4E881F981CF010196D5
:101500009983888310838E819F8101969F838E8328
:10151000E3CFE885F985812F0995892BA1F3DACFEF
:10152000FB01238120FF11C026FD0FC08F3F9807CC
:1015300071F082832F7D206423832681378121509F
:10154000310937832683992708958FEF9FEF0895F8
:10155000FA01AA27283051F1203181F1E8946F93E4
:101560006E7F6E5F7F4F8F4F9F4FAF4FB1E03ED08A
:10157000B4E03CD0670F781F891F9A1FA11D680F28
:10158000791F8A1F911DA11D6A0F711D811D911D5B
:10159000A11D20D009F468943F912AE0269F1124D0
:1015A0003019305D3193DEF6CF010895462F477034
:1015B000405D4193B3E00FD0C9F7F6CF462F4F708F
:1015C000405D4A3318F0495D31FD4052419302D0ED
:1015D000A9F7EACFB4E0A695979587957795679593
:1015E000BA95C9F700976105710508959B01AC0193
:1015F0000A2E06945795479537952795BA95C9F7BA
:10160000620F731F841F951FA01D089599278827B7
:101610000895262FF999FECF92BD81BDF89A0197C2
:1016200000B4021639F01FBA20BD0FB6F894FA9A2A
:10163000F99A0FBE08952F923F924F925F926F9248
:101640007F928F929F92AF92BF92CF92DF92EF9252
:10165000FF920F931F93CF93DF93CDB7DEB7CA1BD3
:10166000DB0B0FB6F894DEBF0FBECDBF09942A88FE
:10167000398848885F846E847D848C849B84AA84A6
:10168000B984C884DF80EE80FD800C811B81AA8133
:10169000B981CE0FD11D0FB6F894DEBF0FBECDBFFE
:0816A000ED010895F894FFCF5D
:1016A80023004D616E74656A204C616D626100456E
:1016B800453130392046696E616C2050726F6A6519
:1016C800637400257525750025346C756D732020AD
:1016D8002025326C752E25316C75005B256C7525BF
:1016E800316C755D0074696D652065787069726527
:1016F8006420202020004D41583D202532640025DB
:0217080064007B
:00000001FF
