:100000000C9434000C943E000C943E000C943E0082
:100010000C943E000C943E000C943E000C943E0068
:100020000C943E000C943E000C943E000C943E0058
:100030000C943E000C943E000C943E000C943E0048
:100040000C943E000C943E000C943E000C943E0038
:100050000C943E000C943E000C943E000C943E0028
:100060000C943E000C943E0011241FBECFEFD8E04C
:10007000DEBFCDBF0E9481000C94AA000C9400004A
:10008000811102C05A9808955A9A089581E00E94F9
:1000900040002FEF84E39CE0215080409040E1F746
:1000A00000C000005A982FEF84E39CE0215080406C
:1000B0009040E1F700C00000089581E00E944000F8
:1000C0002FEF8EE994E2215080409040E1F700C08C
:1000D00000005A982FEF84E39CE02150804090402C
:1000E000E1F700C00000089523B130E0A90102C08B
:1000F000559547958A95E2F7CA018095909581704C
:100100000895529A5A982B9A2C9A2D9A83E00E941D
:100110007400813031F40E9446000E9446000E9423
:100120005D0084E00E947400813031F40E9446003A
:100130000E9446000E94460085E00E9474008130C3
:1001400029F70E945D000E9446000E945D000E9407
:080150004600DCCFF894FFCF5C
:00000001FF
