:100000000C9434000C9449000C9449000C94490061
:100010000C9449000C9449000C9449000C9449003C
:100020000C9449000C9449000C9449000C9449002C
:100030000C9449000C9449000C9449000C9449001C
:100040000C9449000C9449000C9449000C9449000C
:100050000C9449000C9449000C9449000C944900FC
:100060000C9449000C94490011241FBECFEFD8E036
:10007000DEBFCDBF11E0A0E0B1E0E6E6F5E002C0F2
:1000800005900D92A434B107D9F70E9412010C9487
:10009000B1020C940000EF92FF920F931F93CF9345
:1000A000DF9303E0D0E0C0E011E0812F0E94F9006F
:1000B000CC0FDD1F80FBEE24E0F8F12CCE0DDF1D10
:1000C0001F5F163091F7015079F7CE01DF91CF9184
:1000D0001F910F91FF90EF900C9443029BB19F7082
:1000E0009BB99BB1807F892B8BB9299A2998089558
:1000F000CF93C82F28980E946E008C2F8295807F06
:100100000E946E008FE39FE10197F1F700C00000AD
:10011000CF910895811104C080E8860F0C94780077
:1001200080ECFBCF8AB1806F8AB984B1836084B9D7
:100130008FE59AEE0197F1F700C0000080E30E947E
:100140006E008FE19EE40197F1F700C0000080E3AC
:100150000E946E008FED91E00197F1F700C0000062
:1001600080E30E946E0080E20E946E008FE39FE1B8
:100170000197F1F700C0000088E20E9478008FE04C
:100180000C947800CF93C82F289A0E946E008C2F71
:100190008295807F0E946E008FE39FE10197F1F7C7
:1001A00000C00000CF910895CF93DF93EC018991B7
:1001B000811103C0DF91CF9108950E94C200F7CF53
:1001C000ECE7F0E080818B7F80838081877F808374
:1001D00080818064808380818F778083AAE7B0E00C
:1001E0008C9187688C938C9187788C9380E2808344
:1001F000089590917C00907F90937C0090917C007A
:100200008F70892B80937C0080917A00806480932A
:100210007A0080917A0086FDFCCF809179008091F0
:1002200079000895FF920F931F93CF93DF930E945D
:1002300092000E94E0000E944B0081E00E94780042
:1002400063E080E00E948A0084E091E00E94D40094
:1002500063E081E00E948A0081E191E00E94D40085
:100260002FEF89E698E1215080409040E1F700C0EF
:1002700000000E943E0260E170E00E94CA01EC01B1
:1002800081E00E9478006C2F80E00E948A008DE15E
:1002900091E00E94D40010E000E080E00E94F900AC
:1002A00090E08C3F910520F58731910508F057C00B
:1002B000CF30D105A1F06C2F80E00E948A0080E34E
:1002C00091E00E94D4006C2F6F5F80E00E948A0052
:1002D0008DE191E00E94D400219610E000E02FE72C
:1002E00089EA93E0215080409040E1F700C000008F
:1002F00083E00E94F900F82EF2948FE0F82260E08B
:1003000081E00E948A008FE191E00E94D4006F2D6D
:1003100081E00E948A0082E391E00E94D4008FE392
:100320009CE90197F1F700C00000FC161D0609F0DA
:10033000B4CF0F5F1F4F0B34110509F0AECF61E052
:1003400080E00E948A0084E391E00E94D40090E063
:1003500080E0DF91CF911F910F91FF900895815917
:100360009109459728F61C161D060CF0B8CF6C2F86
:1003700080E00E948A0080E391E00E94D4006C2F0C
:10038000615080E00E948A008DE191E00E94D400DB
:100390002197A3CF97FB072E16F4009407D077FD83
:1003A00009D00E94DE0107FC05D03EF490958195AE
:1003B0009F4F0895709561957F4F0895AA1BBB1BB1
:1003C00051E107C0AA1FBB1FA617B70710F0A61B55
:1003D000B70B881F991F5A95A9F780959095BC0176
:1003E000CD0108958F929F92AF92BF92CF92DF92EC
:1003F000EF92FF92CF93DF93EC01688179818A813C
:100400009B81611571058105910521F464E279ED07
:100410008BE597E02DE133EF41E050E00E944E0282
:1004200049015A019B01AC01A7EAB1E40E946D02A7
:100430006B017C01ACEEB4EFA50194010E947B023C
:10044000DC01CB018C0D9D1DAE1DBF1DB7FF03C090
:100450000197A109B04888839983AA83BB839F77BA
:10046000DF91CF91FF90EF90DF90CF90BF90AF9052
:100470009F908F9008950E94F201089580E091E08E
:100480000E94F2010895B0E0A0E0809300019093F3
:100490000101A0930201B09303010895052E97FB7B
:1004A0001EF400940E94650257FD07D00E9480024E
:1004B00007FC03D04EF40C9465025095409530959E
:1004C00021953F4F4F4F5F4F0895909580957095C0
:1004D00061957F4F8F4F9F4F08950E94A202A59F65
:1004E000900DB49F900DA49F800D911D112408952F
:1004F000B7FF0C946D020E946D02821B930B08954E
:10050000A1E21A2EAA1BBB1BFD010DC0AA1FBB1F17
:10051000EE1FFF1FA217B307E407F50720F0A21B89
:10052000B30BE40BF50B661F771F881F991F1A94F6
:1005300069F760957095809590959B01AC01BD0120
:10054000CF010895A29FB001B39FC001A39F700D7A
:10055000811D1124911DB29F700D811D1124911DCB
:060560000895F894FFCF9E
:10056600010000004D616E74656A204C616D626128
:10057600004545313039204C616220360058002054
:100586002020202020202020202020202020202065
:1005960020005E00202020596F752057696E2120AB
:0405A6002020000011
:00000001FF
