:100000000C9434000C9451000C9451000C94510049
:100010000C9485000C9451000C9451000C945100E8
:100020000C9451000C9451000C9451000C9451000C
:100030000C9451000C9451000C9451000C945100FC
:100040000C9451000C9451000C9451000C945100EC
:100050000C9451000C9451000C9451000C945100DC
:100060000C9451000C94510011241FBECFEFD8E026
:10007000DEBFCDBF11E0A0E0B1E0E2EAFAE002C0ED
:1000800005900D92A431B107D9F721E0A4E1B1E0C8
:1000900001C01D92AB31B207E1F70E9475010C94CB
:1000A0004F050C94000005966AE070E00E94010282
:1000B0006150710908F4089585E38A95F1F700000D
:1000C000F7CF0F931F93CF93DF93EC019C0150E088
:1000D00040E060E472E48FE090E00E941502890144
:1000E0009A013695279517950795219728F4DF9162
:1000F000CF911F910F9108952C9AC8010E9453002F
:100100002C98C8010E945300F0CF1F920F920FB697
:100110000F9211248F939F9386B1982F9270909392
:100120001A018072809317018091180181112CC0EF
:1001300080911701882321F082E08093190136C055
:1001400080911A01882361F080911401909115012A
:100150000196909315018093140181E08093190119
:100160009091190180911801981739F081E08093DE
:10017000160180911901809318019F918F910F9022
:100180000FBE0F901F901895809118018130C1F417
:1001900080911701882321F083E0809319011AC010
:1001A00080911A018111DCCF109219018091140104
:1001B0009091150101979093150180931401D0CF70
:1001C00080911801823099F480911701811108C043
:1001D0001092190180911401909115010196EBCFB5
:1001E00080911A01882309F4BBCF83E0A6CF8091C8
:1001F0001701811102C081E0A0CF80911A01811105
:10020000AFCF82E0CACF9BB19F709BB99BB1807F7B
:10021000892B8BB9299A29980895CF93C82F2898AC
:100220000E9403018C2F8295807F0E9403018FE33F
:100230009FE10197F1F700C00000CF91089581116F
:1002400004C080E8860F0C940D0180ECFBCF8AB1CE
:10025000806F8AB984B1836084B98FE59AEE019783
:10026000F1F700C0000080E30E9403018FE19EE4EB
:100270000197F1F700C0000080E30E9403018FEDB9
:1002800091E00197F1F700C0000080E30E940301B4
:1002900080E20E9403018FE39FE10197F1F700C024
:1002A000000088E20E940D018FE00C940D01CF93B5
:1002B000C82F289A0E9403018C2F8295807F0E946C
:1002C00003018FE39FE10197F1F700C00000CF9198
:1002D0000895CF93DF93EC018991811103C0DF91E1
:1002E000CF9108950E945701F7CFCF93DF9300D0AD
:1002F00000D01F92CDB7DEB788B1826288B9249A48
:100300008091680082608093680080916C008262B6
:1003100080936C00789486B1827080931A0186B1C4
:1003200080728093170180911701811152C08091D2
:100330001A0181114EC0109218018091180180930A
:10034000190100E111E095E0D92E9E012F5F3F4F8A
:100350007901809116018823E1F3109216018091B2
:100360001401909115019F938F931F930F931F92E8
:10037000DF92FF92EF920E946A0261E070E090E0EB
:1003800080E00E941F01C7010E9469018091140151
:1003900090911501877099270FB6F894DEBF0FBEB4
:1003A000CDBF892BB1F6E0911401F0911501F7FF53
:1003B00003C0F195E195F109F695E795F695E79576
:1003C000EE70FF27E050FF4F808191810E94610015
:1003D000C0CF80911701811108C080911A01882334
:1003E00021F081E080931801A8CF80911701882324
:1003F00031F080911A01811102C082E0F3CF83E0D5
:10040000F1CF97FB072E16F4009407D077FD09D0A3
:100410000E94340207FC05D03EF4909581959F4FD1
:100420000895709561957F4F0895052E97FB1EF4F2
:1004300000940E942C0257FD07D00E94480207FC3E
:1004400003D04EF40C942C02509540953095219594
:100450003F4F4F4F5F4F08959095809570956195F0
:100460007F4F8F4F9F4F0895AA1BBB1B51E107C0C1
:10047000AA1FBB1FA617B70710F0A61BB70B881F34
:10048000991F5A95A9F780959095BC01CD010895C3
:10049000A1E21A2EAA1BBB1BFD010DC0AA1FBB1F88
:1004A000EE1FFF1FA217B307E407F50720F0A21BFA
:1004B000B30BE40BF50B661F771F881F991F1A9467
:1004C00069F760957095809590959B01AC01BD0191
:1004D000CF010895AEE0B0E0E0E7F2E00C9426052D
:1004E0000D891E898F89988D26E02C831A830983B4
:1004F00097FF02C080E090E801979E838D83AE0154
:10050000455E5F4F698D7A8DCE0101960E949A02F9
:100510004D815E8157FD0AC02F81388542175307F0
:100520000CF49A01020F131FF80110822E96E4E0DA
:100530000C944205ABE0B0E0E0EAF2E00C94180560
:100540007C013B018A01FC0117821682838181FFB5
:10055000C8C1CE0101965C01F7019381F30193FDBF
:10056000859193FF81913F01882309F453C185321E
:1005700039F493FD859193FF81913F01853229F4F0
:10058000B70190E00E948A04E7CF912C212C312CF6
:10059000FFE1F31538F08B3211F190F4803209F15C
:1005A000833229F137FC3CC020ED280F2A3050F56A
:1005B00036FE20C08AE0989E200D1124922E06C09F
:1005C0008D3291F0803371F7689430F8F30193FD28
:1005D000859193FF81913F018111DACF21C0689409
:1005E00031F8689432F8F2CF689433F8EFCF68941A
:1005F00034F8ECCFEAE02E9E200D1124222E6894D0
:1006000035F8E4CF8E3229F436FC04C1689436F80C
:10061000DDCF8C3619F4689437F8D8CF8836B1F22C
:10062000982F9F7D95549330E0F08336A1F1833766
:10063000C1F1833509F063C02801F2E04F0E511C6F
:10064000F801C080D180692D70E036FC02C06FEFE8
:100650007FEFC6010E9474044C01689437F8820150
:100660000AC00C5F1F4FFFE3F98388248394912C09
:100670006501E89437F833FE2DC0522C81149104A3
:1006800071F5552009F468CFB70180E290E00E942F
:100690008A045A94F6CFF801808189830E5F1F4F38
:1006A000E4CF2801F2E04F0E511CF801C080D18048
:1006B000692D70E036FC02C06FEF7FEFC6010E942B
:1006C0007F044C018201D5CFB70180E290E00E9407
:1006D0008A042A942814190409F0B0F7CECFF60141
:1006E00037FC859137FE81916F01B70190E00E9440
:1006F0008A0451105A94F1E08F1A9108BFCF8436C2
:1007000019F0893609F077C0F80137FE6BC06081B7
:100710007181828193810C5F1F4FF32DFF763F2EF5
:1007200097FF09C090958095709561957F4F8F4F89
:100730009F4F689437F82AE030E0A5010E94BA0480
:10074000C82ECA188C2C432C36FE0CC0E89440F8F6
:10075000C91440F434FE05C032FC03C0F32DFE7E04
:100760004F2E892C44FE95C0FE01EC0DF11D8081B9
:10077000803309F087C0242D297E422E842D887075
:10078000582E43FC95C040FE8FC09C2C821418F458
:100790002C0C922C981844FE91C0B70180E390E095
:1007A0000E948A0442FE09C088E790E041FE02C030
:1007B00088E590E0B7010E948A04C91408F48AC051
:1007C000CA94D12C9FEFC91AD90ACA0CDB1CF601B6
:1007D00082916F01B70190E00E948A04AC14BD04BD
:1007E000B1F74FCF60817181072E000C880B990BF8
:1007F0000E5F1F4F92CFD32CE894D4F82AE030E05C
:10080000853739F1232D297FD22E8F3601F148F417
:100810008835A9F0F701868197812B96E2E10C9447
:100820003405803749F08837A9F7D4FE02C06894B0
:10083000D2F820E130E00DC06894D4F8F6CF34FE51
:1008400003C0822F8660D82E20E132E002C028E06B
:1008500030E0F801D7FE0FC0608171818281938101
:100860000C5F1F4FA5010E94BA04C82ECA183D2C68
:10087000E89437F867CF6081718190E080E00E5F87
:100880001F4FF0CF42FC02C0839478CF83948394AF
:1008900075CF842D867809F471CFF6CFB70180E249
:1008A00090E00E948A0483948214C0F3512C73CF89
:1008B000522C5818821408F46ECFF8CF842D867805
:1008C00009F47BCF8BE241FE80E247FC8DE2B70169
:1008D00090E071CFB70180E390E00E948A049A947F
:1008E0006CCF8FEF9FEF99CFFC0105906150704066
:1008F0000110D8F7809590958E0F9F1F0895FC01E9
:100900006150704001900110D8F7809590958E0F3E
:100910009F1F08950F931F93CF93DF93182F092FD5
:10092000EB018B8181FD09C01FEF0FEF812F902F0D
:10093000DF91CF911F910F91089582FF14C02E81F6
:100940003F818C819D81281739073CF4E881F9812A
:10095000CF0101969983888310838E819F810196B0
:100960009F838E83E3CFE885F985812F0995892BB5
:10097000A1F3DACFFA01AA27283051F1203181F111
:10098000E8946F936E7F6E5F7F4F8F4F9F4FAF4F97
:10099000B1E03ED0B4E03CD0670F781F891F9A1FAA
:1009A000A11D680F791F8A1F911DA11D6A0F711D5E
:1009B000811D911DA11D20D009F468943F912AE06A
:1009C000269F11243019305D3193DEF6CF01089552
:1009D000462F4770405D4193B3E00FD0C9F7F6CF83
:1009E000462F4F70405D4A3318F0495D31FD40524B
:1009F000419302D0A9F7EACFB4E0A69597958795E1
:100A000077956795BA95C9F70097610571050895BF
:100A10009B01AC010A2E069457954795379527956B
:100A2000BA95C9F7620F731F841F951FA01D089503
:100A30002F923F924F925F926F927F928F929F92EE
:100A4000AF92BF92CF92DF92EF92FF920F931F93DC
:100A5000CF93DF93CDB7DEB7CA1BDB0B0FB6F8948D
:100A6000DEBF0FBECDBF09942A88398848885F84CD
:100A70006E847D848C849B84AA84B984C884DF803E
:100A8000EE80FD800C811B81AA81B981CE0FD11D22
:100A90000FB6F894DEBF0FBECDBFED010895F894F8
:020AA000FFCF86
:100AA200060126014A015D018801B801EE010B022F
:040AB2002533640084
:00000001FF
